:100000000C9460000C94AD100C94AD100C94AD10D9
:100010000C94AD100C94AD100C94AD100C94AD106C
:100020000C94AD100C94AD100C94AD100C94AD105C
:100030000C94AD100C94AD100C94AD100C94AD104C
:100040000C94AD100C94AD100C94AD100C94AD103C
:100050000C94AD100C94AD100C94AD100C94AD102C
:100060000C94AD100C94AD100C94AD100C94AD101C
:100070000C94AD100C94AD100C94AD100C94AD100C
:100080000C94AD100C94AD100C94AD100C94AD10FC
:100090000C94AD100C94AD100C94AD100C94AD10EC
:1000A0000C94AD100C94AD100C94AD100C94AD10DC
:1000B0000C94AD1001000102800102049D00216832
:1000C00011241FBECFEFD8E0DEBFCDBFE4EBF0E0E0
:1000D00040E017C0B591A59135912591059107FD97
:1000E0000CC095918591EF01F92FE82F05900D92A5
:1000F000A217B307D9F7FE0104C01D92A217B307D8
:10010000E1F7E03CF40731F70E947B050C9469109D
:04011000F894FFCF91
:100114004F925F926F927F928F929F92AF92BF9213
:10012400CF92DF92EF92FF920F931F93CF93DF93BF
:10013400CDB7DEB760970FB6F894DEBF0FBECDBF64
:100144007C014B015A016901F9018081823009F473
:1001540068C028F4882339F0813071F155C18330A7
:1001640009F052C1D8C040E060E080E00E940B0C6E
:100174000E94A40E4FEF6FEF8FEF0E940B0CBC0197
:1001840088E094E00E94260EF801808188230CF018
:100194003BC140E060E080E00E940B0C0E94A40E92
:1001A400C7010E94741081E0F7018783F601808300
:1001B400C7010E94051028C180919C04882399F0EE
:1001C40040E060E080E00E940B0C0E94A40E4FEF20
:1001D4006FEF8FEF0E940B0CBC0183E194E00E944F
:1001E400260E10929C04F7018781882309F40CC120
:1001F40040E060E080E00E940B0C0E94A40EC70166
:100204000E94CF0F882309F468C1C7010E94CF0F51
:10021400E3EDF0E33197F1F700C000008111F5CF71
:100224005CC140E060E080E00E940B0C0E94A40EE0
:1002340040E060E080E00E940B0C0E94A40EF801F4
:10024400808180FF32C081FF18C040E060E08FEF02
:100254000E940B0CBC018DE194E00E94260EFFE786
:100264002AE186E0F15020408040E1F700C0000020
:10027400F50186818E5F868342C040E065EA8FEF98
:100284000E940B0CBC0188E294E00E94260EFFE75A
:100294002AE186E0F15020408040E1F700C00000F0
:1002A400F50186818F5F86832AC040E06FEF8FEF70
:1002B4000E940B0CBC018DE294E00E94260EFFE725
:1002C4002AE186E0F15020408040E1F700C00000C0
:1002D400F801808181FF0FC040E060E08FEF0E9451
:1002E4000B0CBC0183E394E00E94260EF701808589
:1002F4008E5F808704C0F70180858F5F808784E0EC
:10030400F601808380E5F701808388E7818381E0BB
:1003140080939C0479C0C7010E940510C5010E9406
:10032400620F40E060E08FEF0E940B0C2C014FEF56
:1003340060E080E00E940B0C3C0140E065EA8FEF36
:100344000E940B0C8C019301A201F4016181808154
:100354000E94CB08F7012081F4018081281768F1FD
:1003640030E0428190E0840F911D821793072CF1B5
:10037400F7012181F40181812817F8F030E04381ED
:1003840090E0840F911D82179307BCF040E060E079
:1003940080E00E940B0C0E94A40E40E06FEF80E00E
:1003A4000E940B0CBC0180E494E00E94260EF5012F
:1003B40086818F5FF401868311C040E060E080E0B5
:1003C4000E940B0C0E94A40E40E060E08FEF0E949C
:1003D4000B0CBC0188E494E00E94260E4FEF6FEFF3
:1003E4008FEF0E940B0CBC01CE0101960E94260ED9
:1003F400FFE72AE186E0F15020408040E1F700C0A9
:10040400000084E0F6018083F7018085853060F187
:10041400B501C7010E94920F40E060E080E00E94B5
:100424000B0C8C0140E065EA8FEF0E940B0C9C01E1
:1004340040E554E06BE285E00E94990C40E060E006
:1004440080E00E940B0C8C0140E065EA8FEF0E9473
:100454000B0C9C0140E654E069E48AE00E94990C8C
:1004640084E0F60180832FC0F5018681853058F140
:10047400B501C7010E94920F40E060E080E00E9455
:100484000B0C8C0140E065EA8FEF0E940B0C9C0181
:1004940040E554E06BE285E00E94990C40E060E0A6
:1004A40080E00E940B0C8C0140E065EA8FEF0E9413
:1004B4000B0C9C014DE654E069E48AE00E94990C1F
:1004C40084E0F6018083FFE322E48FE0F1502040D2
:1004D4008040E1F700C0000009C082E0F60180839B
:1004E400F7011782C7010E9405108ECF60960FB6E0
:1004F400F894DEBF0FBECDBFDF91CF911F910F9156
:10050400FF90EF90DF90CF90BF90AF909F908F902F
:0A0514007F906F905F904F90089564
:10051E00AEE0B0E0E5E9F2E00C942E0F4C016B0179
:10052E001A8219828FEF9FEF9C838B831E821D820E
:10053E0058874F833A872987A12CB12CD6016D900D
:10054E007C90F301EA0DFB1D808181110FC0D60155
:10055E00ED93FC938081853209F0D3C13F01BFEF4B
:10056E006B1A7B0AF6017182608219C0853279F3AB
:10057E00B401082E000C990B0E94760B4FEFA41AB3
:10058E00B40ADCCF8C32ACF08D32F9F489819A81C9
:10059E0081609A8389833196D601ED93FC93D601BF
:1005AE00ED91FC9180818B3269F789819A8184600B
:1005BE00F0CF803221F489819A818860EACF83322C
:1005CE0051F489819A818061E4CF803321F489814D
:1005DE009A818260DECFB701C6010E94F80D9E831C
:1005EE008D8397FF0BC029813A81B1E02B273A8387
:1005FE0029839195819591099E838D8389819A8115
:10060E0080FF03C08D7F9A838983D601ED91FC9183
:10061E00119780818E3249F43196ED93FC93B70198
:10062E00C6010E94F80D9C838B83C6010E94EE0EBC
:10063E00582ED601ED91FC918081082E000C990B5D
:10064E000E949E10893609F443C084F4833609F45F
:10065E0002C134F4853209F427C18136E1F030C18C
:10066E008436B1F188360CF4D9C02AC1803709F42A
:10067E009AC03CF48E3609F4BCC08F3609F461C0C2
:10068E001FC1853709F440C0883709F476C0833717
:10069E0009F016C1F3C0652D70E0A701CE010B96CF
:1006AE000E940000892B09F426C1D601ED91FC9120
:1006BE001197CF0101968D939C932081AE01455FDA
:1006CE005F4FBE016F5F7F4FC4010E94000010C1DB
:1006DE00652D70E0970141E050E0CE010B960E942F
:1006EE00A509892B09F407C1F60180819181019634
:1006FE0091838083AE01455F5F4FBE016F5F7F4F79
:10070E00C4010E945908F4C0652D70E0970140E0C5
:10071E0050E0CE010B960E94A509892B09F4EBC07F
:10072E00D6018D919C91119701968D939C93AE015C
:10073E00455F5F4FBE016F5F7F4FC4010E94520C39
:10074E00D7C0652D70E0970140E050E0CE010B96CA
:10075E000E94A509892B09F4CEC0F60180819181F2
:10076E00019691838083AE01455F5F4FBE016F5F3F
:10077E007F4FC4010E94720ABBC0652D70E09701C5
:10078E0040E050E0CE010B960E94A509892B09F49A
:10079E00B2C0D601ED91FC911197CF0101968D93C8
:1007AE009C9320811CC0970140E050E060EF70E008
:1007BE00CE010B960E94A509892B09F49CC0F60167
:1007CE00808191810196918380838B859C85892B75
:1007DE0029F420E030E046E954E084C028E7AE0179
:1007EE00455F5F4FBE016F5F7F4FC4010E948D0456
:1007FE007FC0A501400F511F652D70E09701CE01FE
:10080E000B960E940000892B09F475C0D6018D91BC
:10081E009C91119701968D939C9373C0652D70E0FA
:10082E00A701CE010B960E940000892B09F463C02C
:10083E00D601ED91FC911197CF0101968D939C936A
:10084E002081AE01455F5F4FBE016F5F7F4FC401D8
:10085E000E9400004DC0B0E85B124DC0F6018081D1
:10086E009181019691838083D701ED91FC9111972F
:10087E00CF0102968D939C93808120C0B0E85B12CD
:10088E003AC0F60180819181019691838083D701D0
:10089E00ED91FC911197CF0102968D939C9340811F
:1008AE00518120E030E01EC0B0E85B1224C0F6019A
:1008BE00208131812F5F3F4F318320838B870DC085
:1008CE0085E28B87D6016D927C921A8219821E82E6
:1008DE001D828FEF9FEF9C838B8321E030E0AE0172
:1008EE00455F5F4FBE016F5F7F4FC4010E94510E87
:1008FE008A0D9B1D07C0F60180819181019691831F
:0C090E008083C5012E96EFE00C944A0F88
:10091A00AFE0B0E0E3E9F4E00C942B0F1C016B01AB
:10092A005A8349832B83FB0182819381848095803A
:10093A0000811181A680B78097FD02C00D7F02C099
:10094A0081E090E0E981FA81408051806280738081
:10095A009801207133273D832C83740104FF08C05A
:10096A00411451046104710419F032E0E31AF108E8
:10097A00F801E870FF27FF83EE8303FF03C0F1E06D
:10098A00EF1AF108F6010084F185E02D3197FF870F
:10099A00EE87EA0DFB1D10829C012E193F0939874B
:1009AA002887C801827099279B878A87EB818E2FB7
:1009BA00EE0F990B9C01215431093D872C872E8516
:1009CA003F852230310530F48C819D81892B09F0D5
:1009DA0042C05CC0411451046104710461F18E8506
:1009EA009F8501979F878E87C2018F7099278A30CA
:1009FA00910514F4C09602C0895A9F4FEC85FD8573
:100A0A007A9748F49C012062215631092A3131052E
:100A1A0010F40E947D10EE85FF85EA0DFB1D808390
:100A2A00F1E0EF1AF10884E07694679457944794BA
:100A3A008A95D1F7C4CF888599858E0D9F1D181682
:100A4A0019066CF21E141F040CF0BECFEA85FB8552
:100A5A00EF2B29F6B9CFE981FA8180819181A281B0
:100A6A00B381892B8A2B8B2B89F0EE85FF85EA0DC2
:100A7A00FB1D31972B8120838E859F8502979F8747
:100A8A008E87FC01EA0DFB1D80E38083EE81FF81E6
:100A9A00EF2B59F02E853F85215031093F872E874C
:100AAA00F901EA0DFB1D80E28083F601408551853C
:100ABA00415051092E853F85421B530BB9016A0DDE
:100ACA007B1D9401C1010E94910D9C01F10180815D
:100ADA00918190FF06C0F601828193818217930764
:0C0AEA000CF4C9012F96E2E10C94470FB8
:100AF600CF93DF93CDB7DEB7E7970FB6F894DEBF97
:100B06000FBECDBF84E0888FAE014F5E5F4FBE0142
:100B1600665F7F4FCE0101960E94CB0A87E690E082
:100B26000E94161087E690E00E943410BE016F5EA8
:100B36007F4FCE0101960E94210B888D843009F0EB
:100B460045C040E060E080E00E940B0C8C014FEF56
:100B56006FEF8FEF0E940B0C9C0146E453E06EE6AC
:100B66008AE20E94BA072FEF83ED90E3215080407E
:100B76009040E1F700C000000E949610898F1B8EFE
:100B86001A8EFE017C969CE1DF011D929A95E9F78B
:100B96001F928F9386E593E09F938F938E01065E57
:100BA6001F4F1F930F930E94E20FC8010E9425104A
:100BB600898D0F900F900F900F900F900F908823B4
:100BC6002CF4188E83E693E00E9425100F2EFCE18C
:100BD6009F2EF02D5E01BCE1AB0EB11C0F2EF6E58B
:100BE600CF2EF3E0DF2EF02D7E01EAE1EE0EF11CB2
:100BF600888D843009F045C0BE016F5E7F4FCE01FF
:100C060001960E94210B40E060E080E00E940B0C00
:100C16008C014FEF6FEF8FEF0E940B0C9C0146E4A7
:100C260053E06EE68AE20E94BA07FFEF29E688E102
:100C3600F15020408040E1F700C000000E9496106D
:100C4600898F1B8E1A8ED501E92D1D92EA95E9F73B
:100C56001F928F93DF92CF92FF92EF920E94E20F44
:100C6600C7010E942510898D0F900F900F900F904D
:100C76000F900F9088232CF4188E83E693E00E9441
:100C860025108E01075E1F4F9E01285E3F4FAE0165
:100C96004F5E5F4FBE01665F7F4FCE0101960E9499
:040CA6008A00A6CF4B
:100CAA002F923F924F925F926F927F928F929F9272
:100CBA00AF92BF92CF92DF92EF92FF920F931F9360
:100CCA00CF93DF93CDB7DEB72A970FB6F894DEBF7E
:100CDA000FBECDBFCE2CD12CDA86C986A0EAB0E0F1
:100CEA00A81BB109F601EE0FFF1FEE0FFF1FEC0D57
:100CFA00FD1D3197EA17FB070CF077C0A0E8B0E0BA
:100D0A00A61BB109F601EE0FFF1FEE0FFF1FEE0F34
:100D1A00FF1F3197EA17FB070CF067C02E2C732FC1
:100D2A00E22F9A01A62E482FC901880F991F880F12
:100D3A00991F820F931F9C012E593F4F3E832D838B
:100D4A009C0129593F4F38872F83B42EE9837A8330
:100D5A000B831C83ED81FE81C190FE83ED833A2CC7
:100D6A00E12CF12CD12CC6010E2C02C09595879549
:100D7A000A94E2F780FD03C05B804C8002C0598070
:100D8A004A8029853A8512161306BCF01DC0452DE6
:100D9A00542D672D862D0E9451103FEF831A930A16
:100DAA00739489859A858815990589F70F5F1F4F6E
:100DBA0063948017910721F407C06B2C00E010E0C0
:100DCA00732C812C912CE3CF9FEFE91AF90A320C8C
:100DDA00E8E0EE16F10439F6B20CCF80D8842D8102
:100DEA003E81C216D30609F0B5CF2A960FB6F894FB
:100DFA00DEBF0FBECDBFDF91CF911F910F91FF9044
:100E0A00EF90DF90CF90BF90AF909F908F907F90A0
:0C0E1A006F905F904F903F902F900895D4
:100E26002F923F924F925F926F927F928F929F92F4
:100E3600AF92BF92CF92DF92EF92FF920F931F93E2
:100E4600CF93DF9300D000D0CDB7DEB7C82EF62EF5
:100E56002901682E712C242F30E03A8329838901D9
:100E6600060D171D262E312C4101821A930A220ED9
:100E7600331E621A730A12F4612C712C992014F431
:100E8600812C912C003A110514F00FE910E030E89E
:100E9600231631042CF00F2EFFE72F2E312CF02DC8
:100EA600222D402F682D862D0E94CA0D2A982814BF
:100EB60039040CF444C089819A81889F5001899F26
:100EC600B00CB00C11242F2D30E03A832983D12C9D
:100ED60025C02B813C812C193D09229FC001239FEF
:100EE600900D900D11248E0D9F1DA816B90624F0A5
:100EF600C2010E94F40F04C080E090E00E94F40F4B
:100F06008B819C8101969C838B83081719070CF7AC
:100F16009FEF891A990A281439048CF006151705CB
:100F2600BCF3C40129813A81821B930B889F70010F
:100F3600899FF00CF00C11247C826B82CACF2A9A0E
:100F46000F900F900F900F90DF91CF911F910F91FF
:100F5600FF90EF90DF90CF90BF90AF909F908F90D3
:0E0F66007F906F905F904F903F902F90089576
:100F74002F923F924F925F926F927F928F929F92A5
:100F8400AF92BF92CF92DF92EF92FF920F931F9393
:100F9400CF93DF9300D000D000D0CDB7DEB75A8313
:100FA4004983222E332EFA0101900020E9F731976C
:100FB4005F01A41AB50ABC82AB8227E0260FA50103
:100FC400440F551F440F551F4A0D5B1D9FEF980F8B
:100FD400490F0E94CA0D2A98812C912C662463948F
:100FE400712C89819A81A80EB91E38C0F60121910D
:100FF4006F012052822F90E09E838D83880F991F6A
:10100400880F991FED81FE81E80FF91FEE5FFE4FF7
:10101400FE83ED83412C512CED81FE818191FE8371
:10102400ED8390E08E219F21892B19F4802F912F3D
:1010340002C0822D932D0E94F40FFFEF4F1A5F0A16
:1010440025E04216510441F7CA14DB0479F63FEF58
:10105400831A930A88E08816910479F0EB81FC8165
:101064001E161F06A4F77301082C02C0EE0CFF1C09
:101074000A94E2F7C980DA80B9CF2A9A26960FB685
:10108400F894DEBF0FBECDBFDF91CF911F910F91BA
:10109400FF90EF90DF90CF90BF90AF909F908F9094
:0E10A4007F906F905F904F903F902F90089537
:1010B200A2E0B0E0EFE5F8E00C942B0F3C016B01ED
:1010C200FB0122813381A480B580808191819A8342
:1010D200898386809780FA01208031804280538004
:1010E200B201A10157FE07C044275527BA01421990
:1010F20053096409750937FD03C08D7F9A8389837B
:10110200950157FC05C0898182FD02C083FF02C0A0
:1011120021503109CE0101967C010AE010E0C6019E
:101122000E940D0A57FC03C0298122FF0AC00197C1
:10113200F401E80FF91F57FC02C02BE209C02DE2AF
:1011420007C023FF06C00197F401E80FF91F20E250
:10115200208309811A81F601408551854150510948
:10116200481B590BB401680F791F9501C3010E94F6
:10117200910D9C01F3018081918190FF06C0F601DF
:1011820082819381821793070CF4C9012296E2E1CE
:041192000C94470F63
:101196004F925F926F927F928F929F92AF92BF9281
:1011A600CF92DF92EF92FF920F931F93CF93DF932D
:1011B600D82FC62F7A01480165E06C0F48E08AE017
:1011C6008D0F0E9413070F2EF8E25F2EF02D5C0E96
:1011D6000F2EF4E14F2EF02D4D0E6FE06C0F8701B0
:1011E600252D442D8D2F0E94DE0CCC2ED12C5601A0
:1011F60089E1A80EB11C6D2E712C84E1C80ED11C9C
:101206009501A301B601C3010A970E943B09A301F8
:10121600425E5F4F9601B501C30144960E943B09A9
:1012260064E16C0F940145E083E28D0F0E94130781
:10123600C45C47E04D0F2C2F652D8D2F0E94DE0CD0
:101246002C2F442D652D8DE08D0F0E94DE0CDF9135
:10125600CF911F910F91FF90EF90DF90CF90BF90AD
:10126600AF909F908F907F906F905F904F90089572
:10127600AF92BF92CF92DF92EF92FF920F931F939E
:10128600CF93DF937C015B016A01E901841795071F
:10129600B1F1CB01821B930BB701641B750B0E9446
:1012A600A70FC69EC001C79E900DD69E900D112415
:1012B600C81BD90BEC14FD048CF4D62F6E9DC00D03
:1012C6001124A8016C2F8E2D0E9451108FEFE81A61
:1012D600F80ACD0FCE14DF04A4F729C0D62F6C9DD3
:1012E600C00D1124A8016C2F8C2D0E9451108FEF78
:1012F600C81AD80ACD0FEC14FD04A4F718C062175B
:10130600730764F4A8016A2D8E2D0E9451108FEF89
:10131600A81AB80ACA15DB05ACF709C0A8016C2FD4
:101326008E2D0E9451102196AC16BD06BCF7DF919A
:10133600CF911F910F91FF90EF90DF90CF90BF90CC
:04134600AF900895C7
:10134A00CF93DF93DC01F90168387105F1F05CF4A1
:10135A006138710561F164387105A1F16038710570
:10136A0009F051C02FC0603C710509F441C0603FCB
:10137A007105F1F1603A710509F045C0C081D1816A
:10138A00CE0102969183808325C0C081D181CE018E
:10139A00029691838083452B39F04881042E000CF4
:1013AA00550B660B770B1CC0488150E029C0C081E1
:1013BA00D181CE01049691838083488159816A81C3
:1013CA007B810EC0C081D181CE0102969183808338
:1013DA00452BA1F048815981052E000C660B770B2D
:1013EA004D935D936D937C93139781E090E00DC0CC
:1013FA00C081D181CE01029691838083488159812F
:10140A0060E070E0EDCF80E090E0DF91CF91089549
:10141A00A0E0B0E0E3E1FAE00C942D0FDC01280132
:10142A001696AD90BC901797F7018081918112961C
:10143A00ED91FC9113971896CD91DC91199721970C
:10144A00F7FF02C0E1E0F0E0CA0DDB1D1882690176
:10145A00A1E0B0E08F01021B130B4C01F2E08F22D6
:10146A009924052C000C66087708CE018A199B0975
:10147A00CA15DB0519F1411551056105710589F098
:10148A00CB01BA01A30192010E94CC0ECA01A62F78
:10149A00B72F605D6A9341E0C41AD108A901BC0163
:1014AA00E4CF98012C0D3D1D121613064CF31C14A3
:1014BA001D0434F48114910419F702C080E090E00D
:1014CA00AB2B31F4F701208131812F7E31832083C8
:0A14DA00CDB7DEB7E0E10C94490F36
:1014E400A2E0B0E0E8E7FAE00C942F0F4C016B01A6
:1014F400FB012281338164807580808191819A838C
:101504008983A680B78037FD03C08D7F9A83898342
:10151400FA014081518162817381CE0101967C017F
:1015240008E010E09301C6010E940D0A298124FFFE
:1015340006C00197F501E80FF91F20E320832981F4
:1015440023FF06C00197F501E80FF91F20E220836D
:1015540009811A81F6014085518541505109481B82
:10156400590BB501680F791F9301C4010E94910DB5
:101574009C01F4018081918190FF06C0F601828173
:101584009381821793070CF4C9012296EEE00C9420
:021594004B0FFB
:10159600CF92DF92EF92FF920F931F93CF93DF9339
:1015A600EC017B018A010E947B0E40E060E080E056
:1015B6000E940B0C0E94A40E80E5888388E789832D
:1015C6001A821B820F2EF5E0DF2EF02DDC824FEF04
:1015D6006FEF8FEF0E940B0C9E838D831F82188600
:1015E60086E4F70180838AE081830F2EF4E1CF2E13
:1015F600F02DC282838340E06FEF80E00E940B0CE7
:10160600F7019583848388818A50F80180838981D4
:10161600865F8183C282D38240E06FEF80E00E94C2
:101626000B0CF801958384831682DF91CF911F916D
:0C1636000F91FF90EF90DF90CF9008958F
:10164200EF92FF920F931F93CF93DF937C01EB01F5
:1016520040E060E080E00E940B0C0E94A40E40E09B
:1016620060E080E00E940B0C8C014FEF6FEF8FEF78
:101672000E940B0C9C0149EF53E066E181E20E945B
:10168200BA0740E060E080E00E940B0C8C014FEF53
:101692006FEF8FEF0E940B0C9C0141E054E066E17A
:1016A20081E70E94BA07F701408550E0405D5F4F35
:1016B2000F2EF3E0EF2EF02D00E010E02FEF3FEFC2
:1016C20064E381E20E9455064E8150E0405D5F4F27
:1016D2002FEF3FEF64E381E70E945506DF91CF9140
:0A16E2001F910F91FF90EF90089503
:1016EC000F931F93CF93DF93DB01109719F48FEFB8
:1016FC009FEF3DC02D913C91119730FF25C0169660
:10170C004D915C91179714962D913C91159742171A
:10171C00530778F41296ED91FC91139780831296EF
:10172C002D913C9113972F5F3F4F13963C932E9323
:10173C00129716962D913C9117972F5F3F4F179646
:10174C003C932E93169713C01C96ED91FC911D970C
:10175C00309769F2EB01092F182F0995892B39F66F
:10176C008E819F8101969F838E83812F902FDF9195
:08177C00CF911F910F91089518
:10178400BF92CF92DF92EF92FF920F931F93CF936A
:10179400DF93EC012A98D62E0F2EF4EFBF2EF02DF6
:1017A400CC24C39429C0289888810E9486107E0185
:1017B40082E0E80EF11C9981289A8FEF890F992312
:1017C40061F0E70190E00196E80EF91E8701899126
:1017D4000E948610C017D107D1F7E7012196F701BF
:1017E4008081882341F08F3F11F090E002C08B2D5F
:1017F4009C2D0E945E10DA94D110D5CF2A9ADF91E5
:10180400CF911F910F91FF90EF90DF90CF90BF90F9
:02181400089535
:10181600FF920F931F93CF93DF93282F70E06E5F95
:101826007F4F3FE3369FC001379F900D1124CFEFC6
:10183600D0E0BE010E94A70F8B01000F111F029579
:101846001295107F1027007F102750E04C5F5F4FE6
:101856000F2EFFE1FF2EF02DF49EC001F59E900D98
:101866001124BE010E94A70F062B172B30E02C5F18
:101876003F4FF29EC001F39E900D1124BE010E94BF
:10188600A70FF62FFF0FFF0FFF0FE0E0C8018E2B0B
:0E1896009F2BDF91CF911F910F91FF9008952E
:1018A400A2E0B0E0E8E5FCE00C942F0F5C016B01D2
:1018B400FB012281338184809580808191819A8388
:1018C40089836680778037FD03C08D7F9A838983FF
:1018D400FA014081518162817381CE0101967C01BC
:1018E4000AE010E09401C6010E940D0A09811A81E0
:1018F400F6014085518541505109481B590BB301EC
:10190400680F791F9401C5010E94910D9C01F50196
:101914008081918190FF06C0F601828193818217B4
:0E19240093070CF4C9012296EEE00C944B0FD1
:101932005F926F927F928F929F92AF92BF92CF925D
:10194200DF92EF92FF920F931F93CF93DF93562E66
:101952006A01390148015A016894FF24F3F8F80E2C
:10196200C0E0D0E010C0F50141915F0150E0689401
:10197200EE24E1F884019301652D8F2D0E94550616
:101982002196FAE0FF0EF60101900020E9F7319767
:10199200EC19FD09CE17DF0730F3DF91CF911F91CC
:1019A2000F91FF90EF90DF90CF90BF90AF909F90FC
:0A19B2008F907F906F905F90089572
:1019BC009F92AF92BF92CF92DF92EF92FF920F93D2
:1019CC001F93CF93DF93C82E962EA42EE22E0E9447
:1019DC00CA0D2A98D12CB12C8FEFA81AB80ACA14A8
:1019EC00DB04B4F4F12C8FEFE81AF80AC92DD0E01F
:1019FC00CE15DF053CF4C8010E94F40F2196CE15DC
:101A0C00DF05CCF38FEFC81AD80ACA14DB0474F3C1
:101A1C002A9ADF91CF911F910F91FF90EF90DF9059
:0A1A2C00CF90BF90AF909F900895F7
:101A3600A2E8B0E0E1E2FDE00C94310F5C014A015E
:101A4600CF57DF4F79836883C158D040C12CD12C42
:101A5600CF57DF4FE881F981C158D0408081882374
:101A6600E9F07401860120E830E0AE014F5F5F4F78
:101A7600BE016F577F4FC5010E948F028C0D9D1DC1
:101A86008C159D054CF48FE490E0909301018093B2
:101A960000018FEF9FEF03C06C01DACFC601CE576E
:081AA600DF4FECE00C944D0F42
:101AAE00A0E1B0E0EDE5FDE00C94370FFB01BA01CB
:101ABE00AE014F5F5F4F7A0140E1D7011D924A950B
:101ACE00E9F742E051E05A8349839C838B83F7FF09
:101ADE0009C08FE490E090930101809300018FEF95
:101AEE009FEF14C0A9018C013197FE83ED83C701CE
:101AFE000E947A0F4F8158852D813E8142175307E0
:101B0E0008F49A01F801E20FF31F10826096E6E0E6
:041B1E000C94530FC1
:101B2200A0E0B0E0E7E9FDE00C94310F6C015B014D
:101B32007A01E901480181E08822992400FD03C06D
:101B42004217530750F0A701B501C6010E940E0FBC
:101B5200EC16FD0610F0C70117C08E010E191F0901
:101B62000115110541F0B60180E290E00E94760B6A
:101B720001501109F5CF8114910429F4A701B5018F
:101B8200C6010E940E0FCE01CDB7DEB7ECE00C9479
:021B92004D0FF5
:101B9400CF93DF93CDB7DEB761970FB6F894DEBF6E
:101BA4000FBECDBF9AE2998394E09A831B828C8303
:101BB4001D824E831F828BE2888799871A866B87E2
:101BC4001C862D871E868CE28F87188A85E0898B78
:101BD40063E0CE0101960E94C20B61960FB6F894A1
:0C1BE400DEBF0FBECDBFDF91CF91089592
:101BF000DC01ED91FC91119780818A3221F080E027
:101C000090E03AE00EC03196ED93FC93DB01ED914C
:101C1000FC911197CF0102968D939C9380819181C5
:101C20000895ED91FC911197208120532A3068F49A
:101C3000389FA001399F500D1124CA01820F911DB8
:0C1C400031961196FC93EE93ECCF0895C2
:101C4C00EF92FF920F931F93CF93DF93EC017B01E5
:101C5C0040E060E080E00E940B0C0E94A40E40E08B
:101C6C0060E080E00E940B0C8C019701AE016FE3E9
:101C7C0084E10E94990C2FE784E89EE1215080407A
:101C8C009040E1F700C00000DF91CF911F910F91C0
:061C9C00FF90EF90089597
:101CA200A0E0B0E0E7E5FEE00C94330F7C01FB011D
:101CB200EA01C901A280B380C480D580008111816C
:101CC200209711F4CFE8D4E0009719F4CE010E94D6
:101CD2004310B7FC04C0A816B90608F4C501960162
:101CE200AC01BE01C7010E94910DCDB7DEB7EAE09B
:041CF2000C944F0FF0
:101CF60084B1836084B98DB18C608DB9399A569A56
:101D060084B5836884BD85B5846085BD8FE787BD4E
:101D160083ED90E30197F1F700C00000299A80E572
:101D26008093AC0081E08093AD0081EE94E0019752
:101D3600F1F700C0000066E184E793E00E94C20B61
:021D46000895FE
:101D4800EF92FF920F931F93CF93DF938C012FE7AE
:101D58004FE960E080E00E94CA0D2A980F2EF0EA51
:101D6800EF2EF12CF02D09C0C8010E94F40F219725
:101D7800D9F781E0E81AF10819F0C0E8D0E0F4CF0B
:101D88002A9ADF91CF911F910F91FF90EF900895BC
:101D9800A1E21A2EAA1BBB1BFD010DC0AA1FBB1F67
:101DA800EE1FFF1FA217B307E407F50720F0A21BD9
:101DB800B30BE40BF50B661F771F881F991F1A9446
:101DC80069F760957095809590959B01AC01BD0170
:041DD800CF0108959A
:101DDC00CF93DF93EC0190E0E92FF0E0EE0FFF1FC3
:101DEC00E758FB4F8081811102C081810EC0A88110
:101DFC00B9812C91821305C091811196B983A88366
:101E0C0001C09F5F9B3040F3892FDF91CF910895E4
:101E1C00A0E0B0E0E4E1FFE00C94350F6C01EB01C5
:101E2C008A017B01E40EF51ECE15DF0541F0899188
:101E3C00B601082E000C990B0E94760BF5CFC80149
:0A1E4C00CDB7DEB7E8E00C94510FAB
:101E56002F923F924F925F926F927F928F929F92B4
:101E6600AF92BF92CF92DF92EF92FF920F931F93A2
:101E7600CF93DF93CDB7DEB7CA1BDB0B0FB6F89453
:081E8600DEBF0FBECDBF0994C1
:101E8E002A88398848885F846E847D848C849B84FC
:101E9E00AA84B984C884DF80EE80FD800C811B810A
:101EAE00AA81B981CE0FD11D0FB6F894DEBF0FBE39
:061EBE00CDBFED01089507
:101EC4000F931F93CF93DF93EC0140E060E080E039
:101ED4000E940B0C8C01698188812B81260F4A8119
:101EE400480F0E94DE0CDF91CF911F910F9108954E
:101EF400A2E0B0E0E0E8FFE00C94390F8C015A83D3
:101F04004983AE014F5F5F4F0E941B0DF801208192
:101F140024FF02C08FEF9FEF2296E4E00C94550F4C
:101F24000F931F93CF93DF938C01EB0140E060E0AC
:101F340080E00E940B0C0E94A40EF80110861E8201
:0A1F4400DF91CF911F910F910895D6
:101F4E0097FB072E16F4009407D077FD09D00E9458
:101F5E00BB0F07FC05D03EF4909581959F4F0895D9
:081F6E00709561957F4F089505
:101F7600AA1BBB1B51E107C0AA1FBB1FA617B707A9
:101F860010F0A61BB70B881F991F5A95A9F78095C5
:081F96009095BC01CD010895F6
:101F9E00CF93DF93EC010E9405108981803138F0D8
:101FAE0082508983CE010E94741081E001C080E0CE
:061FBE00DF91CF910895B0
:101FC400A0E0B0E0E8EEFFE00C943B0FAE01475F09
:101FD4005F4F6F8178858D819E810E94A610E2E01B
:041FE4000C94570FF3
:101FE8002A989093AE00EDEAF0E090819923ECF7FF
:101FF8008093AE00EDEAF0E080818823ECF72A9A1E
:02200800089539
:10200A00CF93DF93EC0140E060E080E00E940B0C8C
:10201A009C014C81698188810E941307DF91CF91CD
:02202A00089517
:10202C009093C5008093C40088E18093C100E2ECDA
:0E203C00F0E086E080838081886080830895D4
:10204A00CF93DF93EC018881882331F021960E9497
:0E205A008E1089918111FBCFDF91CF910895F7
:102068009093CD008093CC0088E18093C900EAEC7E
:0E207800F0E086E08083808188608083089598
:10208600FC01AF014F5F5F4F2081222311F0FA015F
:0C209600F8CF9F01281B390BC9010895E9
:1020A200CF93DF93EA01262F482F0E94CA0DCE015B
:0A20B2000E94F40FDF91CF91089512
:1020BC00009741F0E9EFF0E03197F1F700C0000034
:0620CC000197C1F7089521
:1020D200EC010E94B2100E94B110CE010E94B31016
:0620E200CE010E94AF10C8
:1020E800FC01258136814481618180810E9413072A
:0220F800089549
:1020FA009C01215631092A31310510F48F7599272F
:02210A00089536
:10210C008093AE00EDEAF0E080818823ECF708952F
:10211C00E0ECF0E0908195FFFDCF8093C600089530
:10212C00E8ECF0E080818823ECF78091CE000895F4
:10213C009C01215431092A31310508F4806208953B
:0E214C009A01AB016FEF7FE70E94570D0895D7
:04215A000C940000E1
:04215E000E94880053
:022162000895DE
:022164000895DC
:022166000895DA
:10216800000000000000005F0000000700070014E6
:102178007F147F14242A7F2A1223130864623649A5
:102188005522500005030000001C22410000412296
:102198001C0014083E081408083E080800503000C7
:1021A8000008080808080060600000201008040201
:1021B8003E5149453E00427F400042615149462117
:1021C80041454B311814127F1027454545393C4A83
:1021D80049493001710905033649494936064949D3
:1021E800291E003636000000563600000814224129
:1021F8000014141414140041221408020151090691
:10220800324979413E7E1111117E7F494949363E56
:10221800414141227F4141221C7F494949417F096F
:102228000909013E4149497A7F0808087F00417F32
:1022380041002040413F017F081422417F40404037
:10224800407F020C027F7F0408107F3E4141413EDF
:102258007F090909063E4151215E7F091929464631
:102268004949493101017F01013F4040403F1F205A
:1022780040201F3F4038403F63140814630708702C
:1022880008076151494543007F4141000204081095
:10229800200041417F0004020102044040404040C8
:1022A800000102040020545454787F4844443838CC
:1022B80044444420384444487F3854545418087ED1
:1022C8000901020C5252523E7F0804047800447DF2
:1022D80040002040443D007F1028440000417F40DA
:1022E800007C041804787C08040478384444443892
:1022F8007C14141408081414187C7C080404084876
:1023080054545420043F4440203C4040207C1C202E
:1023180040201C3C4030403C44281028440C50507D
:10232800503C4464544C44000836410000007F008F
:1023380000004136080010080810080006090906C0
:10234800426974203720284D5342293A2025750ABE
:102358000042697420363A2025750A0042697420C3
:10236800353A2025750A0042697420343A202575CB
:102378000A0042697420333A2025750A00426974BC
:1023880020323A2025750A0042697420313A202506
:10239800750A00426974203020284C5342293A209B
:1023A80025750A00507265737320746F2053746129
:1023B8007274210072656365697665643A202564E4
:1023C80000546F2050726570617265205374617497
:0223D80065009E
:1023DA000100961100FFB103012C2D00B203012C5C
:1023EA002D00B306012C2D012C2D00B4010700C0CD
:1023FA00030A028405C101C505C2020A0005C30217
:10240A008A2A05C4028AEE05C5010E00200000369C
:10241A0001C8003A0105002A040000007F002B04CD
:10242A000000009F00E010021C07123732292D29F4
:10243A00252B390001031000E110031D07062E2C7D
:10244A00292D2E2E373F000002100013000A290002
:05245A00643601600A78
:10245F0050697463686572004869747465720050DE
:10246F007265706172696E67210050697463686983
:10247F006E6721005375706572204869742100489A
:10248F00697421004D697373210053757065722053
:10249F005468726F77210043617567687421004D2E
:1024AF0069737365642100436F6E67726174756C35
:1024BF006174696F6E21005069746368657220578B
:1024CF00696E21004869747465722057696E210026
:1024DF0068076C094C836A9074A07AC00080688882
:0624EF0000846C820081F4
:0724F500286E756C6C2900D4
:0624FC00286E696C290046
:0125020001D7
:00000001FF
