:100000000C9466000C9465100C9465100C946510AB
:100010000C9465100C9465100C9465100C9465108C
:100020000C9465100C9465100C9465100C9465107C
:100030000C9465100C9465100C9465100C9465106C
:100040000C9465100C9465100C9465100C9465105C
:100050000C9465100C9465100C9465100C9465104C
:100060000C9465100C9465100C9465100C9465103C
:100070000C9465100C9465100C9465100C9465102C
:100080000C9465100C9465100C9465100C9465101C
:100090000C9465100C9465100C9465100C9465100C
:1000A0000C9465100C9465100C9465100C946510FC
:1000B0000C9465100100010280010204910020D817
:1000C00004910492800492049300246711241FBEBB
:1000D000CFEFD8E0DEBFCDBFE4EBF0E040E017C0EB
:1000E000B591A59135912591059107FD0CC095918C
:1000F0008591EF01F92FE82F05900D92A217B30714
:10010000D9F7FE0104C01D92A217B307E1F7EC3C3A
:10011000F40731F70E941A060C941D10F894FFCFD3
:10012000AEE0B0E0E6E9F0E00C94E20E4C016B01C9
:100130001A8219828FEF9FEF9C838B831E821D8210
:1001400058874F833A872987A12CB12CD6016D900F
:100150007C90F301EA0DFB1D808181110FC0D60157
:10016000ED93FC938081853209F0D3C13F01BFEF4D
:100170006B1A7B0AF6017182608219C0853279F3AD
:10018000B401082E000C990B0E942A0B4FEFA41A01
:10019000B40ADCCF8C32ACF08D32F9F489819A81CB
:1001A00081609A8389833196D601ED93FC93D601C1
:1001B000ED91FC9180818B3269F789819A8184600D
:1001C000F0CF803221F489819A818860EACF83322E
:1001D00051F489819A818061E4CF803321F489814F
:1001E0009A818260DECFB701C6010E94AC0D9E836A
:1001F0008D8397FF0BC029813A81B1E02B273A8389
:1002000029839195819591099E838D8389819A8116
:1002100080FF03C08D7F9A838983D601ED91FC9185
:10022000119780818E3249F43196ED93FC93B7019A
:10023000C6010E94AC0D9C838B83C6010E94A20E56
:10024000582ED601ED91FC918081082E000C990B5F
:100250000E945210893609F443C084F4833609F4AD
:1002600002C134F4853209F427C18136E1F030C18E
:100270008436B1F188360CF4D9C02AC1803709F42C
:100280009AC03CF48E3609F4BCC08F3609F461C0C4
:100290001FC1853709F440C0883709F476C0833719
:1002A00009F016C1F3C0652D70E0A701CE010B96D1
:1002B0000E940000892B09F426C1D601ED91FC9122
:1002C0001197CF0101968D939C932081AE01455FDC
:1002D0005F4FBE016F5F7F4FC4010E94000010C1DD
:1002E000652D70E0970141E050E0CE010B960E9431
:1002F0005809892B09F407C1F60180819181019683
:1003000091838083AE01455F5F4FBE016F5F7F4F7A
:10031000C4010E940C08F4C0652D70E0970140E014
:1003200050E0CE010B960E945809892B09F4EBC0CE
:10033000D6018D919C91119701968D939C93AE015E
:10034000455F5F4FBE016F5F7F4FC4010E94060C87
:10035000D7C0652D70E0970140E050E0CE010B96CC
:100360000E945809892B09F4CEC0F6018081918141
:10037000019691838083AE01455F5F4FBE016F5F41
:100380007F4FC4010E94250ABBC0652D70E0970114
:1003900040E050E0CE010B960E945809892B09F4E9
:1003A000B2C0D601ED91FC911197CF0101968D93CA
:1003B0009C9320811CC0970140E050E060EF70E00A
:1003C000CE010B960E945809892B09F49CC0F601B6
:1003D000808191810196918380838B859C85892B77
:1003E00029F420E030E04BE854E084C028E7AE0177
:1003F000455F5F4FBE016F5F7F4FC4010E946E0477
:100400007FC0A501400F511F652D70E09701CE01FF
:100410000B960E940000892B09F475C0D6018D91BE
:100420009C91119701968D939C9373C0652D70E0FC
:10043000A701CE010B960E940000892B09F463C02E
:10044000D601ED91FC911197CF0101968D939C936C
:100450002081AE01455F5F4FBE016F5F7F4FC401DA
:100460000E9400004DC0B0E85B124DC0F6018081D3
:100470009181019691838083D701ED91FC91119731
:10048000CF0102968D939C93808120C0B0E85B12CF
:100490003AC0F60180819181019691838083D701D2
:1004A000ED91FC911197CF0102968D939C93408121
:1004B000518120E030E01EC0B0E85B1224C0F6019C
:1004C000208131812F5F3F4F318320838B870DC087
:1004D00085E28B87D6016D927C921A8219821E82E8
:1004E0001D828FEF9FEF9C838B8321E030E0AE0174
:1004F000455F5F4FBE016F5F7F4FC4010E94050ED5
:100500008A0D9B1D07C0F601808191810196918320
:0C0510008083C5012E96EFE00C94FE0ED7
:10051C004F925F926F927F928F929F92AF92BF9207
:10052C00CF92DF92EF92FF920F931F93CF93DF93B3
:10053C00CDB7DEB760970FB6F894DEBF0FBECDBF58
:10054C007C014B015A016901F9018081823009F467
:10055C0040C018F4813029F032C1833009F02FC12A
:10056C00B5C081E0F7018783809192048823C1F0A4
:10057C0040E060E080E00E94BF0B0E94580E4FEFFD
:10058C006FEF8FEF0E94BF0BBC0188E094E00E94DC
:10059C00DA0D10929204F7018781882309F40FC1B8
:1005AC0040E060E080E00E94BF0B0E94580EC70143
:1005BC000E94830F882309F46BC1C7010E94830F2B
:1005CC00E3EDF0E33197F1F700C000008111F5CFB6
:1005DC005FC140E060E080E00E94BF0B0E94580EBB
:1005EC0040E060E080E00E94BF0B0E94580EF801D2
:1005FC00808180FF33C081FF18C040E060E08FEF46
:10060C000E94BF0BBC0182E194E00E94DA0DFFE373
:10061C002DE083E0F15020408040E1F700C0000065
:10062C00F50186818E5F868317C040E065EA8FEF07
:10063C000E94BF0BBC018DE194E00E94DA0DFFE338
:10064C002DE083E0F15020408040E1F700C0000035
:10065C00F50186818F5F8683449A2BC040E06FEF53
:10066C008FEF0E94BF0BBC0182E294E00E94DA0D76
:10067C00FFE32DE083E0F15020408040E1F700C023
:10068C000000F801808181FF0FC040E060E08FEF37
:10069C000E94BF0BBC0188E294E00E94DA0DF701C6
:1006AC0080858E5F808704C0F70180858F5F80878F
:1006BC00439A84E0F6018083F701118680E58083FC
:1006CC0088E7818381E08093920479C0C7010E94FE
:1006DC00B90FC5010E94160F40E060E08FEF0E9439
:1006EC00BF0B2C014FEF60E080E00E94BF0B3C0180
:1006FC0040E065EA8FEF0E94BF0B8C019301A201D1
:10070C00F401618180810E947E08F7012081F4014F
:10071C008081281768F130E0428190E0840F911DB0
:10072C00821793072CF1F7012181F401818128179D
:10073C00F8F030E0438190E0840F911D821793070D
:10074C00BCF040E060E080E00E94BF0B0E94580EBD
:10075C0040E06FEF80E00E94BF0BBC0185E394E0AA
:10076C000E94DA0DF50186818F5FF401868311C03A
:10077C0040E060E080E00E94BF0B0E94580E40E019
:10078C0060E08FEF0E94BF0BBC018DE394E00E94F0
:10079C00DA0D4FEF6FEF8FEF0E94BF0BBC01CE0154
:1007AC0001960E94DA0DFFE72AE186E0F150204025
:1007BC008040E1F700C0000084E0F6018083F7017F
:1007CC008085853060F1B501C7010E94460F40E07D
:1007DC0060E080E00E94BF0B8C0140E065EA8FEF87
:1007EC000E94BF0B9C0145E454E06BE285E00E9443
:1007FC004D0C40E060E080E00E94BF0B8C0140E0BB
:10080C0065EA8FEF0E94BF0B9C0145E554E069E45B
:10081C008AE00E944D0C84E0F60180832FC0F50124
:10082C008681853058F1B501C7010E94460F40E022
:10083C0060E080E00E94BF0B8C0140E065EA8FEF26
:10084C000E94BF0B9C0145E454E06BE285E00E94E2
:10085C004D0C40E060E080E00E94BF0B8C0140E05A
:10086C0065EA8FEF0E94BF0B9C0142E654E069E4FD
:10087C008AE00E944D0C84E0F6018083FFE32DE0BA
:10088C0083E0F15020408040E1F700C0000009C037
:10089C0082E0F6018083F7011782C7010E94B90F2D
:1008AC008ECF60960FB6F894DEBF0FBECDBFDF9132
:1008BC00CF911F910F91FF90EF90DF90CF90BF9051
:1008CC00AF909F908F907F906F905F904F90089516
:1008DC00AFE0B0E0E4E7F4E00C94DF0E1C016B0138
:1008EC005A8349832B83FB01828193818480958079
:1008FC0000811181A680B78097FD02C00D7F02C0D8
:10090C0081E090E0E981FA814080518062807380BF
:10091C009801207133273D832C83740104FF08C098
:10092C00411451046104710419F032E0E31AF10826
:10093C00F801E870FF27FF83EE8303FF03C0F1E0AB
:10094C00EF1AF108F6010084F185E02D3197FF874D
:10095C00EE87EA0DFB1D10829C012E193F09398789
:10096C002887C801827099279B878A87EB818E2FF5
:10097C00EE0F990B9C01215431093D872C872E8554
:10098C003F852230310530F48C819D81892B09F013
:10099C0042C05CC0411451046104710461F18E8544
:1009AC009F8501979F878E87C2018F7099278A3008
:1009BC00910514F4C09602C0895A9F4FEC85FD85B1
:1009CC007A9748F49C012062215631092A3131056D
:1009DC0010F40E943110EE85FF85EA0DFB1D80831B
:1009EC00F1E0EF1AF10884E07694679457944794F9
:1009FC008A95D1F7C4CF888599858E0D9F1D1816C1
:100A0C0019066CF21E141F040CF0BECFEA85FB8590
:100A1C00EF2B29F6B9CFE981FA8180819181A281EE
:100A2C00B381892B8A2B8B2B89F0EE85FF85EA0D00
:100A3C00FB1D31972B8120838E859F8502979F8785
:100A4C008E87FC01EA0DFB1D80E38083EE81FF8124
:100A5C00EF2B59F02E853F85215031093F872E878A
:100A6C00F901EA0DFB1D80E28083F601408551857A
:100A7C00415051092E853F85421B530BB9016A0D1C
:100A8C007B1D9401C1010E94450D9C01F1018081E7
:100A9C00918190FF06C0F6018281938182179307A2
:0C0AAC000CF4C9012F96E2E10C94FB0E43
:100AB8002F923F924F925F926F927F928F929F9266
:100AC800AF92BF92CF92DF92EF92FF920F931F9354
:100AD800CF93DF93CDB7DEB72A970FB6F894DEBF72
:100AE8000FBECDBFCE2CD12CDA86C986A0EAB0E0E5
:100AF800A81BB109F601EE0FFF1FEE0FFF1FEC0D4B
:100B0800FD1D3197EA17FB070CF077C0A0E8B0E0AD
:100B1800A61BB109F601EE0FFF1FEE0FFF1FEE0F28
:100B2800FF1F3197EA17FB070CF067C02E2C732FB5
:100B3800E22F9A01A62E482FC901880F991F880F06
:100B4800991F820F931F9C012E593F4F3E832D837F
:100B58009C0129593F4F38872F83B42EE9837A8324
:100B68000B831C83ED81FE81C190FE83ED833A2CBB
:100B7800E12CF12CD12CC6010E2C02C0959587953D
:100B88000A94E2F780FD03C05B804C8002C0598064
:100B98004A8029853A8512161306BCF01DC0452DDA
:100BA800542D672D862D0E9405103FEF831A930A56
:100BB800739489859A858815990589F70F5F1F4F62
:100BC80063948017910721F407C06B2C00E010E0B4
:100BD800732C812C912CE3CF9FEFE91AF90A320C80
:100BE800E8E0EE16F10439F6B20CCF80D8842D81F6
:100BF8003E81C216D30609F0B5CF2A960FB6F894EF
:100C0800DEBF0FBECDBFDF91CF911F910F91FF9037
:100C1800EF90DF90CF90BF90AF909F908F907F9094
:0C0C28006F905F904F903F902F900895C8
:100C3400CF93DF93CDB7DEB7E8970FB6F894DEBF56
:100C44000FBECDBF84E0898FAE014E5E5F4FBE0103
:100C5400655F7F4FCE0101960E947E0A0E9461105B
:100C640087E690E00E94CA0F87E690E00E94E80FB2
:100C74000F2EFCE1EF2EF02D4E012DE1820E911C82
:100C84000F2EF6E5AF2EF3E0BF2EF02D6E018BE1B3
:100C9400C80ED11CFF24F394898D843009F055C00B
:100CA4008A85811108C0BE016E5E7F4FCE01019618
:100CB4000E94D50AFA8640E060E080E00E94BF0B03
:100CC4008C014FEF6FEF8FEF0E94BF0B9C0146E446
:100CD40053E06EE68AE20E946D079FEFE9E6F8E1D1
:100CE4009150E040F040E1F700C000000E944A103B
:100CF4008A8F1C8E1B8EF4012E2D11922A95E9F7F2
:100D04001F928F93BF92AF92DF92CF920E94960F61
:100D1400C6010E94D90F8A8D0F900F900F900F90EB
:100D24000F900F9088236CF4F98E83E693E00E9471
:100D3400D90F40E060E080E00E94BF0B0E94580E93
:100D440004C086FF02C085FF459A8E01065E1F4FD0
:100D54009E01275E3F4FAE014E5E5F4FBE01655F51
:100D64007F4FCE0101960E948E02F09291048FEF84
:100D74009FE0E7E281509040E040E1F700C00000CE
:080D840045984398449888CF7C
:100D8C002F923F924F925F926F927F928F929F928F
:100D9C00AF92BF92CF92DF92EF92FF920F931F937D
:100DAC00CF93DF9300D000D0CDB7DEB7C82EF62E90
:100DBC002901682E712C242F30E03A832983890174
:100DCC00060D171D262E312C4101821A930A220E74
:100DDC00331E621A730A12F4612C712C992014F4CC
:100DEC00812C912C003A110514F00FE910E030E839
:100DFC00231631042CF00F2EFFE72F2E312CF02D63
:100E0C00222D402F682D862D0E947E0D2A982814A5
:100E1C0039040CF444C089819A81889F5001899FC0
:100E2C00B00CB00C11242F2D30E03A832983D12C37
:100E3C0025C02B813C812C193D09229FC001239F89
:100E4C00900D900D11248E0D9F1DA816B90624F03F
:100E5C00C2010E94A80F04C080E090E00E94A80F7D
:100E6C008B819C8101969C838B83081719070CF747
:100E7C009FEF891A990A281439048CF00615170566
:100E8C00BCF3C40129813A81821B930B889F7001AA
:100E9C00899FF00CF00C11247C826B82CACF2A9AA9
:100EAC000F900F900F900F90DF91CF911F910F919A
:100EBC00FF90EF90DF90CF90BF90AF909F908F906E
:0E0ECC007F906F905F904F903F902F90089511
:100EDA002F923F924F925F926F927F928F929F9240
:100EEA00AF92BF92CF92DF92EF92FF920F931F932E
:100EFA00CF93DF9300D000D000D0CDB7DEB75A83AE
:100F0A004983222E332EFA0101900020E9F7319706
:100F1A005F01A41AB50ABC82AB8227E0260FA5019D
:100F2A00440F551F440F551F4A0D5B1D9FEF980F25
:100F3A00490F0E947E0D2A98812C912C6624639475
:100F4A00712C89819A81A80EB91E38C0F6012191A7
:100F5A006F012052822F90E09E838D83880F991F04
:100F6A00880F991FED81FE81E80FF91FEE5FFE4F92
:100F7A00FE83ED83412C512CED81FE818191FE830C
:100F8A00ED8390E08E219F21892B19F4802F912FD8
:100F9A0002C0822D932D0E94A80FFFEF4F1A5F0AFD
:100FAA0025E04216510441F7CA14DB0479F63FEFF3
:100FBA00831A930A88E08816910479F0EB81FC8100
:100FCA001E161F06A4F77301082C02C0EE0CFF1CA4
:100FDA000A94E2F7C980DA80B9CF2A9A26960FB620
:100FEA00F894DEBF0FBECDBFDF91CF911F910F9155
:100FFA00FF90EF90DF90CF90BF90AF909F908F902F
:0E100A007F906F905F904F903F902F900895D1
:10101800A2E0B0E0E2E1F8E00C94DF0E3C016B01E5
:10102800FB0122813381A480B580808191819A83DC
:10103800898386809780FA0120803180428053809E
:10104800B201A10157FE07C044275527BA0142192A
:1010580053096409750937FD03C08D7F9A83898315
:10106800950157FC05C0898182FD02C083FF02C03B
:1010780021503109CE0101967C010AE010E0C60139
:101088000E94C00957FC03C0298122FF0AC00197AA
:10109800F401E80FF91F57FC02C02BE209C02DE24A
:1010A80007C023FF06C00197F401E80FF91F20E2EB
:1010B800208309811A81F6014085518541505109E3
:1010C800481B590BB401680F791F9501C3010E9491
:1010D800450D9C01F3018081918190FF06C0F601C6
:1010E80082819381821793070CF4C9012296E2E169
:0410F8000C94FB0E4B
:1010FC004F925F926F927F928F929F92AF92BF921C
:10110C00CF92DF92EF92FF920F931F93CF93DF93C7
:10111C00D82FC62F7A01480165E06C0F48E08AE0B1
:10112C008D0F0E94C6060F2EF8E25F2EF02D5C0E7E
:10113C000F2EF4E14F2EF02D4D0E6FE06C0F87014A
:10114C00252D442D8D2F0E94920CCC2ED12C560186
:10115C0089E1A80EB11C6D2E712C84E1C80ED11C36
:10116C009501A301B601C3010A970E94EE08A301E1
:10117C00425E5F4F9601B501C30144960E94EE0892
:10118C0064E16C0F940145E083E28D0F0E94C6066A
:10119C00C45C47E04D0F2C2F652D8D2F0E94920CB7
:1011AC002C2F442D652D8DE08D0F0E94920CDF911C
:1011BC00CF911F910F91FF90EF90DF90CF90BF9048
:1011CC00AF909F908F907F906F905F904F9008950D
:1011DC00AF92BF92CF92DF92EF92FF920F931F9339
:1011EC00CF93DF937C015B016A01E90184179507BA
:1011FC00B1F1CB01821B930BB701641B750B0E94E1
:10120C005B0FC69EC001C79E900DD69E900D1124FB
:10121C00C81BD90BEC14FD048CF4D62F6E9DC00D9D
:10122C001124A8016C2F8E2D0E9405108FEFE81A47
:10123C00F80ACD0FCE14DF04A4F729C0D62F6C9D6D
:10124C00C00D1124A8016C2F8C2D0E9405108FEF5E
:10125C00C81AD80ACD0FEC14FD04A4F718C06217F5
:10126C00730764F4A8016A2D8E2D0E9405108FEF70
:10127C00A81AB80ACA15DB05ACF709C0A8016C2F6F
:10128C008E2D0E9405102196AC16BD06BCF7DF9181
:10129C00CF911F910F91FF90EF90DF90CF90BF9067
:0412AC00AF90089562
:1012B000CF93DF93DC01F90168387105F1F05CF43C
:1012C0006138710561F164387105A1F1603871050B
:1012D00009F051C02FC0603C710509F441C0603F66
:1012E0007105F1F1603A710509F045C0C081D18105
:1012F000CE0102969183808325C0C081D181CE0129
:10130000029691838083452B39F04881042E000C8E
:10131000550B660B770B1CC0488150E029C0C0817B
:10132000D181CE01049691838083488159816A815D
:101330007B810EC0C081D181CE01029691838083D2
:10134000452BA1F048815981052E000C660B770BC7
:101350004D935D936D937C93139781E090E00DC066
:10136000C081D181CE0102969183808348815981C9
:1013700060E070E0EDCF80E090E0DF91CF910895E4
:10138000A0E0B0E0E6ECF9E00C94E10EDC0128010D
:101390001696AD90BC901797F701808191811296B7
:1013A000ED91FC9113971896CD91DC9119972197A7
:1013B000F7FF02C0E1E0F0E0CA0DDB1D1882690111
:1013C000A1E0B0E08F01021B130B4C01F2E08F2271
:1013D0009924052C000C66087708CE018A199B0910
:1013E000CA15DB0519F1411551056105710589F033
:1013F000CB01BA01A30192010E94800ECA01A62F5F
:10140000B72F605D6A9341E0C41AD108A901BC01FD
:10141000E4CF98012C0D3D1D121613064CF31C143D
:101420001D0434F48114910419F702C080E090E0A7
:10143000AB2B31F4F701208131812F7E3183208362
:0A144000CDB7DEB7E0E10C94FD0E1D
:10144A00A2E0B0E0EBE2FAE00C94E30E4C016B018F
:10145A00FB012281338164807580808191819A8326
:10146A008983A680B78037FD03C08D7F9A838983DD
:10147A00FA014081518162817381CE0101967C011A
:10148A0008E010E09301C6010E94C009298124FFE7
:10149A0006C00197F501E80FF91F20E3208329818F
:1014AA0023FF06C00197F501E80FF91F20E2208308
:1014BA0009811A81F6014085518541505109481B1D
:1014CA00590BB501680F791F9301C4010E94450D9C
:1014DA009C01F4018081918190FF06C0F60182810E
:1014EA009381821793070CF4C9012296EEE00C94BB
:0214FA00FF0EE3
:1014FC00CF92DF92EF92FF920F931F93CF93DF93D4
:10150C00EC017B018A010E942F0E40E060E080E03C
:10151C000E94BF0B0E94580E80E5888388E7898360
:10152C001A821B820F2EF5E0DF2EF02DDC824FEF9E
:10153C006FEF8FEF0E94BF0B9E838D831F821886E7
:10154C00198686E4F70180838AE081830F2EF4E10B
:10155C00CF2EF02DC282838340E06FEF80E00E949B
:10156C00BF0BF7019583848388818A50F8018083AF
:10157C008981865F8183C282D38240E06FEF80E0F5
:10158C000E94BF0BF801958384831682DF91CF9163
:0E159C001F910F91FF90EF90DF90CF90089578
:1015AA00EF92FF920F931F93CF93DF937C01EB018E
:1015BA0040E060E080E00E94BF0B0E94580E40E0CD
:1015CA0060E080E00E94BF0B8C014FEF6FEF8FEF5E
:1015DA000E94BF0B9C0149EF53E066E181E20E9441
:1015EA006D0740E060E080E00E94BF0B8C014FEF86
:1015FA006FEF8FEF0E94BF0B9C0141E054E066E160
:10160A0081E70E946D07F701408550E0405D5F4F1A
:10161A000F2EF3E0EF2EF02D00E010E02FEF3FEF5A
:10162A0064E381E20E945C054E8150E0405D5F4FB9
:10163A002FEF3FEF64E381E70E945C05DF91CF91D2
:0A164A001F910F91FF90EF9008959B
:101654000F931F93CF93DF93DB01109719F48FEF50
:101664009FEF3DC02D913C91119730FF25C01696F8
:101674004D915C91179714962D913C9115974217B3
:10168400530778F41296ED91FC9113978083129688
:101694002D913C9113972F5F3F4F13963C932E93BC
:1016A400129716962D913C9117972F5F3F4F1796DF
:1016B4003C932E93169713C01C96ED91FC911D97A5
:1016C400309769F2EB01092F182F0995892B39F608
:1016D4008E819F8101969F838E83812F902FDF912E
:0816E400CF911F910F910895B1
:1016EC00BF92CF92DF92EF92FF920F931F93CF9303
:1016FC00DF93EC012A98D62E0F2EF4EFBF2EF02D8F
:10170C00CC24C39429C0289888810E943A107E0169
:10171C0082E0E80EF11C9981289A8FEF890F9923AA
:10172C0061F0E70190E00196E80EF91E87018991BE
:10173C000E943A10C017D107D1F7E7012196F701A3
:10174C008081882341F08F3F11F090E002C08B2DF7
:10175C009C2D0E941210DA94D110D5CF2A9ADF91C9
:10176C00CF911F910F91FF90EF90DF90CF90BF9092
:02177C000895CE
:10177E00FF920F931F93CF93DF93282F70E06E5F2E
:10178E007F4F3FE3369FC001379F900D1124CFEF5F
:10179E00D0E0BE010E945B0F8B01000F111F02955E
:1017AE001295107F1027007F102750E04C5F5F4F7F
:1017BE000F2EFFE1FF2EF02DF49EC001F59E900D31
:1017CE001124BE010E945B0F062B172B30E02C5FFD
:1017DE003F4FF29EC001F39E900D1124BE010E9458
:1017EE005B0FF62FFF0FFF0FFF0FE0E0C8018E2BF0
:0E17FE009F2BDF91CF911F910F91FF900895C7
:10180C00A2E0B0E0ECE0FCE00C94E30E5C016B01B8
:10181C00FB012281338184809580808191819A8320
:10182C0089836680778037FD03C08D7F9A83898397
:10183C00FA014081518162817381CE0101967C0154
:10184C000AE010E09401C6010E94C00909811A81C6
:10185C00F6014085518541505109481B590BB30184
:10186C00680F791F9401C5010E94450D9C01F5017B
:10187C008081918190FF06C0F6018281938182174D
:0E188C0093070CF4C9012296EEE00C94FF0EB7
:10189A005F926F927F928F929F92AF92BF92CF92F6
:1018AA00DF92EF92FF920F931F93CF93DF93562EFF
:1018BA006A01390148015A016894FF24F3F8F80EC5
:1018CA00C0E0D0E010C0F50141915F0150E068949A
:1018DA00EE24E1F884019301652D8F2D0E945C05A9
:1018EA002196FAE0FF0EF60101900020E9F7319700
:1018FA00EC19FD09CE17DF0730F3DF91CF911F9165
:10190A000F91FF90EF90DF90CF90BF90AF909F9094
:0A191A008F907F906F905F9008950A
:101924009F92AF92BF92CF92DF92EF92FF920F936A
:101934001F93CF93DF93C82E962EA42EE22E0E94DF
:101944007E0D2A98D12CB12C8FEFA81AB80ACA148C
:10195400DB04B4F4F12C8FEFE81AF80AC92DD0E0B7
:10196400CE15DF053CF4C8010E94A80F2196CE15C0
:10197400DF05CCF38FEFC81AD80ACA14DB0474F35A
:101984002A9ADF91CF911F910F91FF90EF90DF90F2
:0A199400CF90BF90AF909F90089590
:10199E00A2E8B0E0E5EDFCE00C94E50E5C014A0136
:1019AE00CF57DF4F79836883C158D040C12CD12CDB
:1019BE00CF57DF4FE881F981C158D040808188230D
:1019CE00E9F07401860120E830E0AE014F5F5F4F11
:1019DE00BE016F577F4FC5010E9490008C0D9D1D5B
:1019EE008C159D054CF48FE490E09093010180934B
:1019FE0000018FEF9FEF03C06C01DACFC601CE5707
:081A0E00DF4FECE00C94010F26
:101A1600A0E1B0E0E1E1FDE00C94EB0EFB01BA01C0
:101A2600AE014F5F5F4F7A0140E1D7011D924A95A3
:101A3600E9F742E051E05A8349839C838B83F7FFA1
:101A460009C08FE490E090930101809300018FEF2D
:101A56009FEF14C0A9018C013197FE83ED83C70166
:101A66000E942E0F4F8158852D813E8142175307C4
:101A760008F49A01F801E20FF31F10826096E6E07F
:041A86000C94070FA6
:101A8A00A0E0B0E0EBE4FDE00C94E50E6C015B0134
:101A9A007A01E901480181E08822992400FD03C006
:101AAA004217530750F0A701B501C6010E94C20EA2
:101ABA00EC16FD0610F0C70117C08E010E191F099A
:101ACA000115110541F0B60180E290E00E942A0B4F
:101ADA0001501109F5CF8114910429F4A701B50128
:101AEA00C6010E94C20ECE01CDB7DEB7ECE00C945F
:021AFA00010FDA
:101AFC00CF93DF93CDB7DEB761970FB6F894DEBF07
:101B0C000FBECDBF9AE2998394E09A831B828C839B
:101B1C001D824E831F828BE2888799871A866B877A
:101B2C001C862D871E868CE28F87188A85E0898B10
:101B3C0063E0CE0101960E94760B61960FB6F89485
:0C1B4C00DEBF0FBECDBFDF91CF9108952A
:101B5800DC01ED91FC91119780818A3221F080E0BF
:101B680090E03AE00EC03196ED93FC93DB01ED91E5
:101B7800FC911197CF0102968D939C93808191815E
:101B88000895ED91FC911197208120532A3068F433
:101B9800389FA001399F500D1124CA01820F911D51
:0C1BA80031961196FC93EE93ECCF08955B
:101BB400EF92FF920F931F93CF93DF93EC017B017E
:101BC40040E060E080E00E94BF0B0E94580E40E0BD
:101BD40060E080E00E94BF0B8C019701AE016FE3CF
:101BE40084E10E944D0C2FE382E49FE02150804069
:101BF4009040E1F700C00000DF91CF911F910F9159
:061C0400FF90EF9008952F
:101C0A00A0E0B0E0EBE0FEE00C94E70E7C01FB0103
:101C1A00EA01C901A280B380C480D5800081118104
:101C2A00209711F4C4E8D4E0009719F4CE010E9479
:101C3A00F70FB7FC04C0A816B90608F4C501960147
:101C4A00AC01BE01C7010E94450DCDB7DEB7EAE07F
:041C5A000C94030FD4
:101C5E0084B1836084B98DB18C608DB9399A569AEE
:101C6E0084B5836884BD85B5846085BD8FE787BDE7
:101C7E0083ED90E30197F1F700C00000299A80E50B
:101C8E008093AC0081E08093AD0081EE94E00197EB
:101C9E00F1F700C0000066E184E793E00E94760B46
:021CAE00089597
:101CB000EF92FF920F931F93CF93DF938C012FE747
:101CC0004FE960E080E00E947E0D2A980F2EF0EA36
:101CD000EF2EF12CF02D09C0C8010E94A80F21970A
:101CE000D9F781E0E81AF10819F0C0E8D0E0F4CFA4
:101CF0002A9ADF91CF911F910F91FF90EF90089555
:101D0000A1E21A2EAA1BBB1BFD010DC0AA1FBB1FFF
:101D1000EE1FFF1FA217B307E407F50720F0A21B71
:101D2000B30BE40BF50B661F771F881F991F1A94DE
:101D300069F760957095809590959B01AC01BD0108
:041D4000CF01089532
:101D4400CF93DF93EC0190E0E92FF0E0EE0FFF1F5B
:101D5400E259FB4F8081811102C081810EC0A881AC
:101D6400B9812C91821305C091811196B983A883FE
:101D740001C09F5F9B3040F3892FDF91CF9108957D
:101D8400A0E0B0E0E8ECFEE00C94E90E6C01EB019D
:101D94008A017B01E40EF51ECE15DF0541F0899121
:101DA400B601082E000C990B0E942A0BF5CFC8012E
:0A1DB400CDB7DEB7E8E00C94050F90
:101DBE002F923F924F925F926F927F928F929F924D
:101DCE00AF92BF92CF92DF92EF92FF920F931F933B
:101DDE00CF93DF93CDB7DEB7CA1BDB0B0FB6F894EC
:081DEE00DEBF0FBECDBF09945A
:101DF6002A88398848885F846E847D848C849B8495
:101E0600AA84B984C884DF80EE80FD800C811B81A2
:101E1600AA81B981CE0FD11D0FB6F894DEBF0FBED1
:061E2600CDBFED0108959F
:101E2C000F931F93CF93DF93EC0140E060E080E0D1
:101E3C000E94BF0B8C01698188812B81260F4A81FE
:101E4C00480F0E94920CDF91CF911F910F91089532
:101E5C00A2E0B0E0E4E3FFE00C94ED0E8C015A83B9
:101E6C004983AE014F5F5F4F0E94CF0CF801208178
:101E7C0024FF02C08FEF9FEF2296E4E00C94090F31
:101E8C000F931F93CF93DF938C01EB0140E060E045
:101E9C0080E00E94BF0B0E94580EF80110861E8233
:0A1EAC00DF91CF911F910F9108956F
:101EB60097FB072E16F4009407D077FD09D00E94F1
:101EC6006F0F07FC05D03EF4909581959F4F0895BE
:081ED600709561957F4F08959E
:101EDE00AA1BBB1B51E107C0AA1FBB1FA617B70742
:101EEE0010F0A61BB70B881F991F5A95A9F780955E
:081EFE009095BC01CD0108958F
:101F0600CF93DF93EC010E94B90F8981803138F0BD
:101F160082508983CE010E94281081E001C080E0B2
:061F2600DF91CF91089548
:101F2C00A0E0B0E0ECE9FFE00C94EF0EAE01475FEF
:101F3C005F4F6F8178858D819E810E945A10E2E0FF
:041F4C000C940B0FD7
:101F50002A989093AE00EDEAF0E090819923ECF797
:101F60008093AE00EDEAF0E080818823ECF72A9AB6
:021F70000895D2
:101F7200CF93DF93EC0140E060E080E00E94BF0B72
:101F82009C014C81698188810E94C606DF91CF91B4
:021F92000895B0
:101F94009093C5008093C40088E18093C100E2EC73
:0E1FA400F0E086E0808380818860808308956D
:101FB200CF93DF93EC018881882331F021960E9430
:0E1FC200421089918111FBCFDF91CF910895DC
:101FD0009093CD008093CC0088E18093C900EAEC17
:0E1FE000F0E086E08083808188608083089531
:101FEE00FC01AF014F5F5F4F2081222311F0FA01F8
:0C1FFE00F8CF9F01281B390BC901089582
:10200A00CF93DF93EA01262F482F0E947E0DCE013F
:0A201A000E94A80FDF91CF910895F6
:10202400009741F0E9EFF0E03197F1F700C00000CC
:062034000197C1F70895B9
:10203A00EC010E946A100E946910CE010E946B1086
:06204A00CE010E946710A8
:10205000FC01258136814481618180810E94C60610
:022060000895E1
:102062009C01215631092A31310510F48F759927C7
:022072000895CF
:102074008093AE00EDEAF0E080818823ECF70895C8
:10208400E0ECF0E0908195FFFDCF8093C6000895C9
:10209400E8ECF0E080818823ECF78091CE0008958D
:1020A4009C01215431092A31310508F480620895D4
:0E20B4009A01AB016FEF7FE70E940B0D0895BC
:0820C2003C9A3B9A3D9A0895F7
:0420CA000C94000072
:0420CE000E948E00DE
:0220D20008956F
:0220D40008956D
:0220D60008956B
:1020D800000000000000005F000000070007001477
:1020E8007F147F14242A7F2A122313086462364936
:1020F8005522500005030000001C22410000412227
:102108001C0014083E081408083E08080050300057
:102118000008080808080060600000201008040291
:102128003E5149453E00427F4000426151494621A7
:1021380041454B311814127F1027454545393C4A13
:102148004949300171090503364949493606494963
:10215800291E0036360000005636000008142241B9
:102168000014141414140041221408020151090621
:10217800324979413E7E1111117E7F494949363EE7
:10218800414141227F4141221C7F494949417F0900
:102198000909013E4149497A7F0808087F00417FC3
:1021A80041002040413F017F081422417F404040C8
:1021B800407F020C027F7F0408107F3E4141413E70
:1021C8007F090909063E4151215E7F0919294646C2
:1021D8004949493101017F01013F4040403F1F20EB
:1021E80040201F3F4038403F6314081463070870BD
:1021F80008076151494543007F4141000204081026
:10220800200041417F000402010204404040404058
:10221800000102040020545454787F48444438385C
:1022280044444420384444487F3854545418087E61
:102238000901020C5252523E7F0804047800447D82
:1022480040002040443D007F1028440000417F406A
:10225800007C041804787C08040478384444443822
:102268007C14141408081414187C7C080404084806
:1022780054545420043F4440203C4040207C1C20BF
:1022880040201C3C4030403C44281028440C50500E
:10229800503C4464544C44000836410000007F0020
:1022A8000000413608001008081008000609090651
:1022B800426974203720284D5342293A2025750A4F
:1022C8000042697420363A2025750A004269742054
:1022D800353A2025750A0042697420343A2025755C
:1022E8000A0042697420333A2025750A004269744D
:1022F80020323A2025750A0042697420313A202597
:10230800750A00426974203020284C5342293A202B
:1023180025750A00507265737320746F20537461B9
:102328007274210072656365697665643A20256474
:1023380000546F2050726570617265205374617427
:0223480065002E
:10234A000100961100FFB103012C2D00B203012CEC
:10235A002D00B306012C2D012C2D00B4010700C05D
:10236A00030A028405C101C505C2020A0005C302A7
:10237A008A2A05C4028AEE05C5010E00200000362D
:10238A0001C8003A0105002A040000007F002B045E
:10239A000000009F00E010021C07123732292D2985
:1023AA00252B390001031000E110031D07062E2C0E
:1023BA00292D2E2E373F000002100013000A290093
:0523CA00643601600A09
:1023CF00506974636865720048697474657200506F
:1023DF0069746368696E6721005375706572204870
:1023EF006974210048697421004D6973732100538A
:1023FF0075706572205468726F772100436175673D
:10240F00687421004D69737365642100436F6E67B3
:10241F00726174756C6174696F6E210050697463B9
:10242F006865722057696E2100486974746572205F
:05243F0057696E210049
:1024440068076C094C836A9074A07AC0008068881D
:0624540000846C8200818F
:07245A00286E756C6C29006F
:06246100286E696C2900E1
:012467000173
:00000001FF
